{
  "address": "0x1B771E43744F8C8040f8298635C461E4b7318d45",
  "abi": [
    {
      "anonymous": false,
      "inputs": [
        {
          "indexed": false,
          "internalType": "uint256",
          "name": "newCounterValue",
          "type": "uint256"
        },
        {
          "indexed": false,
          "internalType": "address",
          "name": "msgSender",
          "type": "address"
        }
      ],
      "name": "IncrementCounter",
      "type": "event"
    },
    {
      "inputs": [
        {
          "internalType": "address",
          "name": "",
          "type": "address"
        }
      ],
      "name": "counter",
      "outputs": [
        {
          "internalType": "uint256",
          "name": "",
          "type": "uint256"
        }
      ],
      "stateMutability": "view",
      "type": "function"
    },
    {
      "inputs": [],
      "name": "increment",
      "outputs": [],
      "stateMutability": "nonpayable",
      "type": "function"
    }
  ],
  "transactionHash": "0x458793cc0ec7d3c6972bc18cdf9ee05233852383ff88697a7f0c601f1b5015f1",
  "args": [],
  "numDeployments": 1,
  "solcInputHash": "552e9403ebb233a1f024c24b2aa6146c",
  "bytecode": "0x608060405234801561001057600080fd5b50610312806100206000396000f3fe608060405234801561001057600080fd5b50600436106100365760003560e01c8063c12327b81461003b578063d09de08a1461006d575b600080fd5b61005b610049366004610240565b60006020819052908152604090205481565b60405190815260200160405180910390f35b610075610077565b005b600061008161011c565b73ffffffffffffffffffffffffffffffffffffffff811660009081526020819052604081208054929350906100b58361027d565b909155505073ffffffffffffffffffffffffffffffffffffffff811660008181526020818152604091829020548251908152908101929092527fd26752d6efe11773b4a85cdfa0b3fe9efa9707bd50024c7beaed659a141f7858910160405180910390a150565b60006101273361015b565b61013057503390565b507fffffffffffffffffffffffffffffffffffffffffffffffffffffffffffffffec36013560601c90565b600046610144148061016e575046610118145b156101da5773ffffffffffffffffffffffffffffffffffffffff82167322dcc39b2ac376862183dd35a1664798dafc7da614806101d4575073ffffffffffffffffffffffffffffffffffffffff821673ba4082f4961c8fb76231995c967cd9aa40f321b5145b92915050565b73ffffffffffffffffffffffffffffffffffffffff821673b539068872230f20456cf38ec52ef2f91af4ae4914806101d4575073ffffffffffffffffffffffffffffffffffffffff8216738598806401a63ddf52473f1b3c55bc9e33e2d73b1492915050565b60006020828403121561025257600080fd5b813573ffffffffffffffffffffffffffffffffffffffff8116811461027657600080fd5b9392505050565b60007fffffffffffffffffffffffffffffffffffffffffffffffffffffffffffffffff82036102d5577f4e487b7100000000000000000000000000000000000000000000000000000000600052601160045260246000fd5b506001019056fea2646970667358221220c4f6819008acfe4c44e015e47502b6f9a4605c0a341f2d6c1b0fddfbc24df0e664736f6c63430008150033",
  "devdoc": {
    "kind": "dev",
    "methods": {},
    "version": 1
  },
  "userdoc": {
    "kind": "user",
    "methods": {},
    "version": 1
  },
  "storageLayout": {
    "storage": [
      {
        "astId": 1088,
        "contract": "contracts/Counter.sol:Counter",
        "label": "counter",
        "offset": 0,
        "slot": "0",
        "type": "t_mapping(t_address,t_uint256)"
      }
    ],
    "types": {
      "t_address": {
        "encoding": "inplace",
        "label": "address",
        "numberOfBytes": "20"
      },
      "t_mapping(t_address,t_uint256)": {
        "encoding": "mapping",
        "key": "t_address",
        "label": "mapping(address => uint256)",
        "numberOfBytes": "32",
        "value": "t_uint256"
      },
      "t_uint256": {
        "encoding": "inplace",
        "label": "uint256",
        "numberOfBytes": "32"
      }
    }
  }
}