{
  "address": "0xd78850F217755a3A771F706ab8D0255e1b9E16B6",
  "abi": [
    {
      "anonymous": false,
      "inputs": [
        {
          "indexed": false,
          "internalType": "uint256",
          "name": "newCounterValue",
          "type": "uint256"
        },
        {
          "indexed": false,
          "internalType": "address",
          "name": "msgSender",
          "type": "address"
        }
      ],
      "name": "IncrementCounter",
      "type": "event"
    },
    {
      "anonymous": false,
      "inputs": [
        {
          "indexed": true,
          "internalType": "address",
          "name": "previousOwner",
          "type": "address"
        },
        {
          "indexed": true,
          "internalType": "address",
          "name": "newOwner",
          "type": "address"
        }
      ],
      "name": "OwnershipTransferred",
      "type": "event"
    },
    {
      "inputs": [
        {
          "internalType": "address",
          "name": "",
          "type": "address"
        }
      ],
      "name": "counter",
      "outputs": [
        {
          "internalType": "uint256",
          "name": "",
          "type": "uint256"
        }
      ],
      "stateMutability": "view",
      "type": "function"
    },
    {
      "inputs": [],
      "name": "increment",
      "outputs": [],
      "stateMutability": "nonpayable",
      "type": "function"
    },
    {
      "inputs": [],
      "name": "owner",
      "outputs": [
        {
          "internalType": "address",
          "name": "",
          "type": "address"
        }
      ],
      "stateMutability": "view",
      "type": "function"
    },
    {
      "inputs": [],
      "name": "renounceOwnership",
      "outputs": [],
      "stateMutability": "nonpayable",
      "type": "function"
    },
    {
      "inputs": [
        {
          "internalType": "address",
          "name": "newOwner",
          "type": "address"
        }
      ],
      "name": "transferOwnership",
      "outputs": [],
      "stateMutability": "nonpayable",
      "type": "function"
    },
    {
      "inputs": [
        {
          "internalType": "address payable",
          "name": "to",
          "type": "address"
        },
        {
          "internalType": "uint256",
          "name": "amount",
          "type": "uint256"
        }
      ],
      "name": "withdraw",
      "outputs": [],
      "stateMutability": "nonpayable",
      "type": "function"
    },
    {
      "stateMutability": "payable",
      "type": "receive"
    }
  ],
  "transactionHash": "0x55e93c97f726cebc3f09a28bee49d051778437dc78edc38aa6121aab70807ec5",
  "args": [],
  "numDeployments": 2,
  "solcInputHash": "1a4380fe0fcff51c58f060616a3e2808",
  "bytecode": "0x608060405234801561001057600080fd5b5061001a3361001f565b61006f565b600080546001600160a01b038381166001600160a01b0319831681178455604051919092169283917f8be0079c531659141344cd1fd0a4f28419497f9722a3daafe3b4186f6b6457e09190a35050565b610e148061007e6000396000f3fe6080604052600436106100695760003560e01c8063d09de08a11610043578063d09de08a14610101578063f2fde38b14610116578063f3fef3a31461013657600080fd5b8063715018a6146100755780638da5cb5b1461008c578063c12327b8146100c657600080fd5b3661007057005b600080fd5b34801561008157600080fd5b5061008a610156565b005b34801561009857600080fd5b5060005460405173ffffffffffffffffffffffffffffffffffffffff90911681526020015b60405180910390f35b3480156100d257600080fd5b506100f36100e1366004610c7c565b60016020526000908152604090205481565b6040519081526020016100bd565b34801561010d57600080fd5b5061008a61016a565b34801561012257600080fd5b5061008a610131366004610c7c565b61028d565b34801561014257600080fd5b5061008a610151366004610ca0565b610344565b61015e610440565b61016860006104c1565b565b61017333610536565b6101de576040517f08c379a000000000000000000000000000000000000000000000000000000000815260206004820152601660248201527f6f6e6c7947656c61746f52656c6179455243323737310000000000000000000060448201526064015b60405180910390fd5b6101e661061b565b60006101f06106ad565b73ffffffffffffffffffffffffffffffffffffffff8116600090815260016020526040812080549293509061022483610ccc565b909155505073ffffffffffffffffffffffffffffffffffffffff8116600081815260016020908152604091829020548251908152908101929092527fd26752d6efe11773b4a85cdfa0b3fe9efa9707bd50024c7beaed659a141f7858910160405180910390a150565b610295610440565b73ffffffffffffffffffffffffffffffffffffffff8116610338576040517f08c379a000000000000000000000000000000000000000000000000000000000815260206004820152602660248201527f4f776e61626c653a206e6577206f776e657220697320746865207a65726f206160448201527f646472657373000000000000000000000000000000000000000000000000000060648201526084016101d5565b610341816104c1565b50565b61034c610440565b60008273ffffffffffffffffffffffffffffffffffffffff168260405160006040518083038185875af1925050503d80600081146103a6576040519150601f19603f3d011682016040523d82523d6000602084013e6103ab565b606091505b505090508061043b576040517f08c379a0000000000000000000000000000000000000000000000000000000008152602060048201526024808201527f436f756e7465722e77697468647261773a206661696c656420746f207769746860448201527f647261770000000000000000000000000000000000000000000000000000000060648201526084016101d5565b505050565b60005473ffffffffffffffffffffffffffffffffffffffff163314610168576040517f08c379a000000000000000000000000000000000000000000000000000000000815260206004820181905260248201527f4f776e61626c653a2063616c6c6572206973206e6f7420746865206f776e657260448201526064016101d5565b6000805473ffffffffffffffffffffffffffffffffffffffff8381167fffffffffffffffffffffffff0000000000000000000000000000000000000000831681178455604051919092169283917f8be0079c531659141344cd1fd0a4f28419497f9722a3daafe3b4186f6b6457e09190a35050565b6000466101441480610549575046610118145b156105b55773ffffffffffffffffffffffffffffffffffffffff82167322dcc39b2ac376862183dd35a1664798dafc7da614806105af575073ffffffffffffffffffffffffffffffffffffffff821673ba4082f4961c8fb76231995c967cd9aa40f321b5145b92915050565b73ffffffffffffffffffffffffffffffffffffffff821673b539068872230f20456cf38ec52ef2f91af4ae4914806105af575073ffffffffffffffffffffffffffffffffffffffff8216738598806401a63ddf52473f1b3c55bc9e33e2d73b1492915050565b610168367fffffffffffffffffffffffffffffffffffffffffffffffffffffffffffffffa4013560601c367fffffffffffffffffffffffffffffffffffffffffffffffffffffffffffffffcc0135367fffffffffffffffffffffffffffffffffffffffffffffffffffffffffffffffb8013560601c73ffffffffffffffffffffffffffffffffffffffff1691906106ec565b60006106b833610536565b6106c157503390565b507fffffffffffffffffffffffffffffffffffffffffffffffffffffffffffffffec36013560601c90565b806000036106f957505050565b73ffffffffffffffffffffffffffffffffffffffff831673eeeeeeeeeeeeeeeeeeeeeeeeeeeeeeeeeeeeeeee1461074b5761043b73ffffffffffffffffffffffffffffffffffffffff84168383610755565b61043b82826107e2565b6040805173ffffffffffffffffffffffffffffffffffffffff8416602482015260448082018490528251808303909101815260649091019091526020810180517bffffffffffffffffffffffffffffffffffffffffffffffffffffffff167fa9059cbb0000000000000000000000000000000000000000000000000000000017905261043b90849061093c565b8047101561084c576040517f08c379a000000000000000000000000000000000000000000000000000000000815260206004820152601d60248201527f416464726573733a20696e73756666696369656e742062616c616e636500000060448201526064016101d5565b60008273ffffffffffffffffffffffffffffffffffffffff168260405160006040518083038185875af1925050503d80600081146108a6576040519150601f19603f3d011682016040523d82523d6000602084013e6108ab565b606091505b505090508061043b576040517f08c379a000000000000000000000000000000000000000000000000000000000815260206004820152603a60248201527f416464726573733a20756e61626c6520746f2073656e642076616c75652c207260448201527f6563697069656e74206d6179206861766520726576657274656400000000000060648201526084016101d5565b600061099e826040518060400160405280602081526020017f5361666545524332303a206c6f772d6c6576656c2063616c6c206661696c65648152508573ffffffffffffffffffffffffffffffffffffffff16610a4b9092919063ffffffff16565b90508051600014806109bf5750808060200190518101906109bf9190610d2b565b61043b576040517f08c379a000000000000000000000000000000000000000000000000000000000815260206004820152602a60248201527f5361666545524332303a204552433230206f7065726174696f6e20646964206e60448201527f6f7420737563636565640000000000000000000000000000000000000000000060648201526084016101d5565b6060610a5a8484600085610a62565b949350505050565b606082471015610af4576040517f08c379a000000000000000000000000000000000000000000000000000000000815260206004820152602660248201527f416464726573733a20696e73756666696369656e742062616c616e636520666f60448201527f722063616c6c000000000000000000000000000000000000000000000000000060648201526084016101d5565b6000808673ffffffffffffffffffffffffffffffffffffffff168587604051610b1d9190610d71565b60006040518083038185875af1925050503d8060008114610b5a576040519150601f19603f3d011682016040523d82523d6000602084013e610b5f565b606091505b5091509150610b7087838387610b7b565b979650505050505050565b60608315610c11578251600003610c0a5773ffffffffffffffffffffffffffffffffffffffff85163b610c0a576040517f08c379a000000000000000000000000000000000000000000000000000000000815260206004820152601d60248201527f416464726573733a2063616c6c20746f206e6f6e2d636f6e747261637400000060448201526064016101d5565b5081610a5a565b610a5a8383815115610c265781518083602001fd5b806040517f08c379a00000000000000000000000000000000000000000000000000000000081526004016101d59190610d8d565b73ffffffffffffffffffffffffffffffffffffffff8116811461034157600080fd5b600060208284031215610c8e57600080fd5b8135610c9981610c5a565b9392505050565b60008060408385031215610cb357600080fd5b8235610cbe81610c5a565b946020939093013593505050565b60007fffffffffffffffffffffffffffffffffffffffffffffffffffffffffffffffff8203610d24577f4e487b7100000000000000000000000000000000000000000000000000000000600052601160045260246000fd5b5060010190565b600060208284031215610d3d57600080fd5b81518015158114610c9957600080fd5b60005b83811015610d68578181015183820152602001610d50565b50506000910152565b60008251610d83818460208701610d4d565b9190910192915050565b6020815260008251806020840152610dac816040850160208701610d4d565b601f017fffffffffffffffffffffffffffffffffffffffffffffffffffffffffffffffe016919091016040019291505056fea2646970667358221220d62ae7aa6689ca4ddae9330ffb6be09192caf396a90cd4bf521954a3b1b2c06e64736f6c63430008150033",
  "devdoc": {
    "kind": "dev",
    "methods": {
      "owner()": {
        "details": "Returns the address of the current owner."
      },
      "renounceOwnership()": {
        "details": "Leaves the contract without owner. It will not be possible to call `onlyOwner` functions. Can only be called by the current owner. NOTE: Renouncing ownership will leave the contract without an owner, thereby disabling any functionality that is only available to the owner."
      },
      "transferOwnership(address)": {
        "details": "Transfers ownership of the contract to a new account (`newOwner`). Can only be called by the current owner."
      }
    },
    "version": 1
  },
  "userdoc": {
    "kind": "user",
    "methods": {},
    "version": 1
  },
  "storageLayout": {
    "storage": [
      {
        "astId": 361,
        "contract": "contracts/Counter.sol:Counter",
        "label": "_owner",
        "offset": 0,
        "slot": "0",
        "type": "t_address"
      },
      {
        "astId": 1413,
        "contract": "contracts/Counter.sol:Counter",
        "label": "counter",
        "offset": 0,
        "slot": "1",
        "type": "t_mapping(t_address,t_uint256)"
      }
    ],
    "types": {
      "t_address": {
        "encoding": "inplace",
        "label": "address",
        "numberOfBytes": "20"
      },
      "t_mapping(t_address,t_uint256)": {
        "encoding": "mapping",
        "key": "t_address",
        "label": "mapping(address => uint256)",
        "numberOfBytes": "32",
        "value": "t_uint256"
      },
      "t_uint256": {
        "encoding": "inplace",
        "label": "uint256",
        "numberOfBytes": "32"
      }
    }
  }
}