{
  "address": "0x9cA5D0dE520C50243979e4b853C64B092F61F75d",
  "abi": [
    {
      "inputs": [
        {
          "internalType": "address",
          "name": "_trustedForwarder",
          "type": "address"
        }
      ],
      "stateMutability": "nonpayable",
      "type": "constructor"
    },
    {
      "anonymous": false,
      "inputs": [
        {
          "indexed": false,
          "internalType": "uint256",
          "name": "newCounterValue",
          "type": "uint256"
        },
        {
          "indexed": false,
          "internalType": "address",
          "name": "msgSender",
          "type": "address"
        }
      ],
      "name": "IncrementCounter",
      "type": "event"
    },
    {
      "inputs": [
        {
          "internalType": "address",
          "name": "",
          "type": "address"
        }
      ],
      "name": "counter",
      "outputs": [
        {
          "internalType": "uint256",
          "name": "",
          "type": "uint256"
        }
      ],
      "stateMutability": "view",
      "type": "function"
    },
    {
      "inputs": [],
      "name": "increment",
      "outputs": [],
      "stateMutability": "nonpayable",
      "type": "function"
    },
    {
      "inputs": [
        {
          "internalType": "address",
          "name": "forwarder",
          "type": "address"
        }
      ],
      "name": "isTrustedForwarder",
      "outputs": [
        {
          "internalType": "bool",
          "name": "",
          "type": "bool"
        }
      ],
      "stateMutability": "view",
      "type": "function"
    }
  ],
  "transactionHash": "0xa842419b941a8f5a01f873e96ad9e7c98f9040f86491f5d09ff86f6d108b0fac",
  "args": [
    "0x8598806401A63Ddf52473F1B3C55bC9E33e2d73b"
  ],
  "numDeployments": 2,
  "solcInputHash": "1a4380fe0fcff51c58f060616a3e2808",
  "bytecode": "0x60a060405234801561001057600080fd5b5060405161036538038061036583398101604081905261002f91610040565b6001600160a01b0316608052610070565b60006020828403121561005257600080fd5b81516001600160a01b038116811461006957600080fd5b9392505050565b6080516102d4610091600039600081816056015261018901526102d46000f3fe608060405234801561001057600080fd5b50600436106100415760003560e01c8063572b6c0514610046578063c12327b8146100a8578063d09de08a146100d6575b600080fd5b610093610054366004610202565b7f000000000000000000000000000000000000000000000000000000000000000073ffffffffffffffffffffffffffffffffffffffff90811691161490565b60405190151581526020015b60405180910390f35b6100c86100b6366004610202565b60006020819052908152604090205481565b60405190815260200161009f565b6100de6100e0565b005b60006100ea610185565b73ffffffffffffffffffffffffffffffffffffffff8116600090815260208190526040812080549293509061011e8361023f565b909155505073ffffffffffffffffffffffffffffffffffffffff811660008181526020818152604091829020548251908152908101929092527fd26752d6efe11773b4a85cdfa0b3fe9efa9707bd50024c7beaed659a141f7858910160405180910390a150565b60007f000000000000000000000000000000000000000000000000000000000000000073ffffffffffffffffffffffffffffffffffffffff16331480156101cd575060143610155b156101fd57507fffffffffffffffffffffffffffffffffffffffffffffffffffffffffffffffec36013560601c90565b503390565b60006020828403121561021457600080fd5b813573ffffffffffffffffffffffffffffffffffffffff8116811461023857600080fd5b9392505050565b60007fffffffffffffffffffffffffffffffffffffffffffffffffffffffffffffffff8203610297577f4e487b7100000000000000000000000000000000000000000000000000000000600052601160045260246000fd5b506001019056fea26469706673582212208afe2392272b0de3b5a9ed3b24273587f3a8b2ec3d785f7d5c8dcea1601e6f3c64736f6c63430008150033",
  "devdoc": {
    "kind": "dev",
    "methods": {},
    "version": 1
  },
  "userdoc": {
    "kind": "user",
    "methods": {},
    "version": 1
  },
  "storageLayout": {
    "storage": [
      {
        "astId": 1484,
        "contract": "contracts/Counter1Balance.sol:Counter1Balance",
        "label": "counter",
        "offset": 0,
        "slot": "0",
        "type": "t_mapping(t_address,t_uint256)"
      }
    ],
    "types": {
      "t_address": {
        "encoding": "inplace",
        "label": "address",
        "numberOfBytes": "20"
      },
      "t_mapping(t_address,t_uint256)": {
        "encoding": "mapping",
        "key": "t_address",
        "label": "mapping(address => uint256)",
        "numberOfBytes": "32",
        "value": "t_uint256"
      },
      "t_uint256": {
        "encoding": "inplace",
        "label": "uint256",
        "numberOfBytes": "32"
      }
    }
  }
}